:060000000C9463010C9456
:1000060000000C9400000C9400000C9400000C946A
:1000160000000C9400000C9400000C9400000C945A
:1000260000000C9400000C9400000C9400000C944A
:1000360000000C9400000C9400000C9400000C943A
:1000460000000C9400000C9400000C9400000507BE
:100056002060000000000000005F000000070007AD
:1000660000147F147F14242A7F2A12231308646243
:1000760036495522500005030000001C22410000AD
:1000860041221C00082A1C2A0808083E08080050BD
:10009600300000080808080800303000002010086A
:1000A60004023E5149453E00427F400042615149AB
:1000B600462141454B311814127F102745454539D5
:1000C6003C4A494930017109050336494949360612
:1000D6004949291E00363600000056360000000841
:1000E600142241141414141441221408000201515C
:1000F6000906324979413E7E1111117E7F494949EF
:10010600363E414141227F4141221C7F49494941B6
:100116007F090901013E414151327F0808087F00ED
:10012600417F41002040413F017F081422417F402A
:100136004040407F0204027F7F0408107F3E414119
:10014600413E7F090909063E4151215E7F09192971
:1001560046464949493101017F01013F4040403F40
:100166001F2040201F7F2018207F6314081463037C
:1001760004780403615149454300007F414102046C
:1001860008102041417F0000040201020440404063
:100196004040000102040020545454787F484444EF
:1001A600383844444420384444487F38545454181A
:1001B600087E090102081454543C7F0804047800A0
:1001C600447D40002040443D00007F10284400410B
:1001D6007F40007C041804787C0804047838444482
:1001E60044387C14141408081414187C7C0804047D
:1001F600084854545420043F4440203C4040207C4E
:100206001C2040201C3C4030403C44281028440C14
:100216005050503C4464544C4400083641000000A1
:100226007F0000004136080002010204027F4141BE
:10023600417F1027E80364000A0001000010000156
:1002460010000100000103070F1F3F7FFF0001019F
:100256000000000001006464646464646464640013
:100266005573723A20256400636D703A2025640048
:10027600506C6179657220776F6E00436F6D707593
:1002860074657220776F6E0044726177000001001A
:100296002D4E414E00494E4600000800040054020F
:1002A60009009A025C020B00600276020D006B02E6
:1002B6008102050078028E020100A7029402000066
:1002C600F894EE27ECBBF1E0FBBFEBBFE5BF8DE09A
:1002D600A2E0BB27ED938A95E9F780E098E0A0E6D7
:1002E600ED930197E9F7E0EAF2E0859195910097A1
:1002F60061F0A591B59105901590BF01F0010590AB
:100306000D920197E1F7FB01F0CFEFE5EDBFE8E0D5
:10031600EEBFC0E6D2E00C94D0016097E1E0EA932C
:10032600EA93EBE0EA93ABE00E94A30FE1E0EA93E5
:10033600EBE0EA93EA93A1E00E94A30FE7E0EA93D9
:10034600E4E1EA93A6E00E947E12FE01FA93EA93A4
:10035600E6E6F2E0FA93EA93E091A502F091A602AE
:100366000E94F912E5E0EA93DE0112960E94680FF8
:10037600FE01FA93EA93EEE6F2E0FA93EA93E0914D
:10038600A302F091A4020E94F912E2E1EA93DE01CF
:1003960012960E94680F6096089522D7A4D6F5019A
:1003A60031965F01E1E0E51551F4E6E0F0E0FA93FD
:1003B600EA93A8E0B0E01BD6CE2EDD2413C0E2E01F
:1003C600F0E06F01EAE9F2E0FA93EA93E6E0F0E0A2
:1003D600FA93EA93E8E0F0E0FA93EA93BA92AA92E3
:1003E600A52DBCD3F301A3E0B0E00E940E16E6569D
:1003F600FD4FE80DF91DA081A43619F0E4E6F0E002
:100406006F01E4E6F0E0EC15FD0509F450C07A92C0
:100416006A929A928A92A52DAFD67A926A929A9207
:100426008A92A52DABD5AAE9B2E000D56F01E4E624
:10043600F0E0EC15FD0599F1E1E0F0E0EC15FD05C5
:1004460059F40E940413A0E6B2E00E94680FA5EAE0
:10045600B2E00E94091319C00C2C0D2859F40E9411
:100466000413ABE6B2E00E94680FA3EAB2E00E9472
:1004760009130BC0ECE9FFEFEC15FD0531F40E9402
:100486000413A8E7B2E00E94680FA4E6B0E00E9459
:10049600D815542CE42D0E9409164E2E24D6E52D8F
:1004A6000E9409165E2EF50131965F0172D57ACF4C
:1004B600FFCFAA930E940F1339F40E94191321F457
:1004C600A0919C02A43609F007C00E9423130E9443
:1004D6002813E2E0F0E0C4C20E940F1339F40E9430
:1004E6002D1321F4A0919B02A43609F003C00E94AB
:1004F6002313B0C20E94191339F40E942D1321F45C
:10050600A0919A02A43609F007C00E9423130E9404
:100516002813E0E0F0E0A4C20E94371339F40E94E9
:10052600411321F4A0919F02A43609F005C00E9450
:100536004B13E2E0F0E094C20E94371339F40E94B4
:10054600501321F4A0919E02A43609F001C07EC288
:100556000E94411339F40E94501321F4A0919D0288
:10056600A43609F005C00E944B13E0E0F0E078C223
:100576000E945A1339F40E94641321F4A091A20236
:10058600A43609F007C00E946E130E942813E2E009
:10059600F0E066C20E945A1339F40E94731321F4E4
:1005A600A091A102A43609F003C00E946E1352C2A4
:1005B6000E94641339F40E94731321F4A091A002DF
:1005C600A43609F007C00E946E130E942813E0E0CB
:1005D600F0E046C20E940F1339F40E94371321F44B
:1005E600A091A002A43609F007C00E946E130E94D3
:1005F6002813E0E0F0E034C20E945A1339F40E9456
:10060600371321F4A0919A02A43609F007C00E947C
:1006160023130E942813E0E0F0E022C20E940F1389
:1006260039F40E945A1321F4A0919D02A43609F0D0
:1006360005C00E944B13E0E0F0E012C20E941913BD
:1006460039F40E94411321F4A091A102A43609F0C5
:1006560003C00E946E13FEC10E94641339F40E9407
:10066600411321F4A0919B02A43609F003C00E9415
:100676002313F0C10E94191339F40E94641321F464
:10068600A0919E02A43609F001C0E0C10E942D137C
:1006960039F40E94501321F4A091A202A43609F065
:1006A60007C00E946E130E942813E2E0F0E0D8C152
:1006B6000E94731339F40E94501321F4A0919C02F6
:1006C600A43609F007C00E9423130E942813E2E013
:1006D600F0E0C6C10E942D1339F40E94731321F471
:1006E600A0919F02A43609F005C00E944B13E2E0D8
:1006F600F0E0B6C10E940F1339F40E94411321F4B1
:10070600A091A202A43609F007C00E946E130E94AF
:100716002813E2E0F0E0A4C10E940F1339F40E940E
:10072600731321F4A0919E02A43609F001C08EC174
:100736000E94731339F40E94411321F4A0919A0286
:10074600A43609F007C00E9423130E942813E0E094
:10075600F0E086C10E945A1339F40E94411321F435
:10076600A0919C02A43609F007C00E9423130E94A0
:100776002813E2E0F0E074C10E945A1339F40E9493
:100786002D1321F4A0919E02A43609F001C05EC18A
:100796000E942D1339F40E94411321F4A091A00266
:1007A600A43609F007C00E946E130E942813E0E0E9
:1007B600F0E056C1E0E057C1AA930E947D1349F4C8
:1007C600A0919B020E94891321F4A0919C02A43659
:1007D60009F007C00E9423130E942813E2E0F0E00C
:1007E6003FC10E947D1349F4A0919C020E94891387
:1007F60021F4A0919B02A43609F003C00E942313A2
:1008060029C10E94901339F40E94961321F4A091F5
:100816009A02A43609F007C00E9423130E942813E7
:10082600E0E0F0E01DC10E949C1339F40E94A2137F
:1008360021F4A0919F02A43609F005C00E944B1333
:10084600E2E0F0E00DC10E949C1339F40E94A81367
:1008560021F4A0919E02A43609F001C0F7C00E94BF
:10086600A21339F40E94A81321F4A0919D02A43684
:1008760009F005C00E944B13E0E0F0E0F1C00E94D1
:10088600AE1339F40E94B41321F4A091A202A43647
:1008960009F007C00E946E130E942813E2E0F0E000
:1008A600DFC00E94AE1339F40E94BA1321F4A0915E
:1008B600A102A43609F003C00E946E13CBC00E94A9
:1008C600B41339F40E94BA1321F4A091A002A436FD
:1008D60009F007C00E946E130E942813E0E0F0E0C2
:1008E600BFC00E947D1349F4A0919D020E94891306
:1008F60021F4A091A002A43609F007C00E946E134D
:100906000E942813E0E0F0E0ABC00E94AE1339F479
:100916000E949C1321F4A0919A02A43609F007C004
:100926000E9423130E942813E0E0F0E099C00E9481
:100936007D1349F4A091A0020E94891321F4A0918D
:100946009D02A43609F005C00E944B13E0E0F0E0DA
:1009560087C00E94901339F40E94A21321F4A0913B
:10096600A102A43609F003C00E946E1373C00E9450
:10097600B41339F40E94A21321F4A0919B02A43669
:1009860009F003C00E94231365C00E94901339F436
:100996000E94B41321F4A0919E02A43609F001C06E
:1009A60055C00E94961339F40E94A81321F4A09111
:1009B600A202A43609F007C00E946E130E942813F3
:1009C600E2E0F0E04DC00E94BA1339F40E94A81389
:1009D60021F4A0919C02A43609F007C00E942313BB
:1009E6000E942813E2E0F0E03BC00E94961339F41F
:1009F6000E94BA1321F4A0919F02A43609F005C003
:100A06000E944B13E2E0F0E02BC00E947D1349F4F4
:100A1600A0919E020E94891321F4A091A202A436FD
:100A260009F007C00E946E130E942813E2E0F0E06E
:100A360017C00E947D1349F4A091A2020E94891357
:100A460021F4A0919E02A43609F00FC0AB81BC81AF
:100A5600E1E0F0E0ED93FC93A981BA81E1E0F0E0FA
:100A6600ED93FC93E1E0259608950E94BA1339F4BC
:100A76000E94A21321F4A0919A02A43609F008C09C
:100A86000E9423130E9428130E94C0130C948B0902
:100A96000E94AE1339F40E94A21321F4A0919C0285
:100AA600A43609F009C00E9423130E9428130E944D
:100AB600C613E1E00C948B090E94AE1339F40E9430
:100AC600961321F4A0919E02A43609F007C00E9455
:100AD6004B130E94CB13E1E00C948B090E949613F2
:100AE60039F40E94A21321F4A091A002A43609F0C1
:100AF60008C00E946E130E9428130E94C0130C9413
:100B06008B09E0E00C948B09BA93AA930E945F16B6
:100B160000E010E00330E0E01E07DCF420E030E007
:100B26002330E0E03E0794F40E94D013A081A4365F
:100B360051F4AE81BF810D931C93AC81BD812D9381
:100B46003C93E1E007C02F5F3F4FEACF0F5F1F4F97
:100B5600E1CFE0E00E94661628960895AA93A9813F
:100B6600BA81119749F4AD81BE810E94C6130E94D5
:100B76006E13ED93FC9358C1A981BA81129709F0BF
:100B860059C00E94DA1391F0EF81F885A0850E9482
:100B9600E11361F0EF81F885A6810E94E11331F03F
:100BA600EF81F885A2810E94E11329F40E94E513E2
:100BB6000E94E81339C1EF81F885A1810E94E113F3
:100BC60039F4AD81BE810E94C6130E94E8132CC180
:100BD600EF81F885A3810E94E11339F40E94E513A1
:100BE6000E946E13ED93FC931FC1EF81F885A781D8
:100BF6000E94E11329F40E94EB130E94E81314C12A
:100C0600EF81F885A5810E94E11339F40E94E5136E
:100C16000E942313ED93FC9307C1EF81F885A4810D
:100C26000E94E11339F40E94EB130E942313ED9303
:100C3600FC93FAC0A981BA81139709F063C0EF81CA
:100C4600F885A4810E94E11339F40E94EB130E94F7
:100C56002313ED93FC93E8C00E94DA1339F40E9443
:100C6600EB130E946E13ED93FC93DEC0EF81F885C3
:100C7600A6810E94E11339F40E94EB130E9423130C
:100C8600ED93FC93D1C0EF81F885A2810E94E11318
:100C960039F40E94EB130E942313ED93FC93C4C016
:100CA600EF81F885A3810E94E11339F40E94EB13CA
:100CB6000E946E13ED93FC93B7C0EF81F885A18176
:100CC6000E94E11339F40E94EB130E946E13ED9318
:100CD600FC93AAC0EF81F885A7810E94E11339F43D
:100CE6000E94EB130E946E13ED93FC939DC0EF815F
:100CF600F885A5810E94E11329F40E94E5130E945C
:100D0600E81392C0A981BA811497B1F40E94F21334
:100D16000E94F2130E94F71309F086C00E94F21394
:100D26000E94F2130E94FC1309F07EC00E94F21387
:100D36000E94011409F078C0A981BA811597B1F40F
:100D46000E94F2130E94F2130E94F71309F06CC07E
:100D56000E94F2130E94F2130E94FC1309F064C071
:100D66000E94F2130E94011409F05EC0A981BA81A3
:100D76001697B1F40E94F2130E94F2130E94F71321
:100D860009F052C00E94F2130E94F2130E94FC1353
:100D960009F04AC00E94F2130E94011409F044C0EF
:100DA600A981BA81179799F40E94F2130E94F2134F
:100DB6000E94F713C9F50E94F2130E94F2130E94D3
:100DC600FC1391F50E94F2130E94011469F5A981A2
:100DD600BA81189799F40E94F2130E94F2130E94A6
:100DE600F71311F50E94F2130E94F2130E94FC13EE
:100DF600D9F40E94F2130E940114B1F4A981BA81B8
:100E0600199791F40E94F2130E94F2130E94F713AD
:100E160059F40E94F2130E94F2130E94FC1321F46B
:100E26000E94F2130E940114299608950E94071445
:100E36000E940C140E941114139751F00E941C1466
:100E4600139731F00E942E140E943314139721F445
:100E5600E1E0F0E00C94370C0E9441140E94441427
:100E6600AE0FBF1F139741F00E944914139721F04C
:100E76000E945B14139721F4E1E0F0E00C94370C28
:100E86000E9441140E941114109751F00E941C14E4
:100E9600109731F00E942E140E943314109721F4FB
:100EA600E0E0F0E00C94370C0E9441140E944414D8
:100EB600AE0FBF1F109741F00E944914109721F002
:100EC6000E945B14109721F4E0E0F0E00C94370CDC
:100ED6000E9441140E946D140E947414139759F0D5
:100EE6000E942E14DF010E947914E281F0E0AE0F19
:100EF600BF1F139721F4E1E0F0E00C94370C0E9439
:100F060041140E946D140E947414109759F00E94A7
:100F16002E14DF010E947914E281F0E0AE0FBF1FAC
:100F2600109721F4E0E0F0E00C94370C0E94411495
:100F36000E941114E881F981E381F0E0AE0FBF1F32
:100F46000E947914E581F0E0AE0FBF1F0E942E14B7
:100F5600AE0FBF1FE881F981E781F0E0AE0FBF1F3A
:100F6600E881F9810E947414159721F4ECE9FFEFEA
:100F76000C94370CE4E6F0E00C94370C0E947C14D9
:100F8600E881E03011F0E1E001C0E0E0EC930C9480
:100F96008B090E945F16EDB7FEB73197FA93EA9375
:100FA6001F930F93ADB7BEB711973F932F931FD0E3
:100FB6002F913F910F911F91E43669F7A5E0B0E0BC
:100FC6000E94D815EDB7FEB73197FA93EA931F93AF
:100FD6000F93ADB7BEB711973F932F9308D02F91BC
:100FE6003F910F911F91E43669F70C94F60BBA9373
:100FF600AA939498959A969A979A809907C00E9470
:1010060089140E949214E7E00C94F80B819909C0A8
:101016000E949714A881B9810E949214E4E00C946E
:10102600F80B829908C00E949A14A881B9810E947F
:10103600C0130C94F80B839903C0E4E60C94F80BE8
:10104600949A9598969A979A809907C00E948914BF
:101056000E94CB13E8E00C94F80B819909C00E941A
:101066009714A881B9810E94CB13E5E00C94F80B84
:10107600829909C00E949A14A881B9810E94CB1353
:10108600E2E00C94F80B839903C0E4E60C94F80BA9
:10109600949A959A9698979A809907C00E9489146F
:1010A6000E94C613E9E00C94F80B819909C00E94CE
:1010B6009714A881B9810E94C613E6E00C94F80B38
:1010C600829909C00E949A14A881B9810E94C61308
:1010D600E3E00C94F80B839903C0E4E60C94F80B58
:1010E600E4E60C94F80B0E945F1600E010E0033073
:1010F600E0E01E0784F420E030E02330E0E03E0725
:101106003CF40E94D013A4E6A0832F5F3F4FF5CF97
:101116000F5F1F4FECCFAA24BB240E94D40BFDD82F
:10112600E2E00E949D14E1E4EA93E6E1EA93EFE748
:10113600EA93A6E10E94A30FE1E4EA93EBE2EA93C5
:10114600EFE7EA93ABE20E94A30FE5E5EA93E1E05D
:10115600EA93E5E5EA93AFE30E94A30FE1E00E947C
:101166009D14EBE6EA93E1E0EA93EBE6EA93AFE35C
:101176000E94A30F0C94F60B0E947C14AC91A4362B
:1011860011F00C948B09A881A130E1F40E94A314FC
:10119600EA5BFF4F0E94AA1435960E94B314EB81B6
:1011A600E55FEA93AE81A55F0E94A30FE981E55F43
:1011B600EA93EC81EA93EB81EA93AE81A55F0E9404
:1011C600A30F0CC00E94A314E45BFF4F0E94AA1455
:1011D6003B960E94B314A6E00E947E120C948B09E3
:1011E6002697E0E0EABBEBBBE7BBE8BBE4BBE5BBAD
:1011F600E0EFE1BBEFE0E2BBE0E0E3BFE2BFECBF64
:10120600EFBDEEBDEDBDECBDE7BDE6BDEBBDEABD98
:10121600E9BDE8BDE2BDE5BDE4BDE3BDE9BFE5BFAF
:10122600E4BFEAB9E0E8E8B9E0E0E0BFE6B9EDB965
:10123600E6BFE4E5F0E0E883F983E0E0EA83EB83E8
:10124600EC83ED83DE010E94720B0C94720CBA9350
:10125600AA93B981A881109631F0FC81EB816A814D
:1012660061931197E9F7EB81FC810C948B09BA9392
:10127600AA93A991B991EE27FF276D91662311F0E4
:101286003196FBCF0895BA93AA93AA27BB27E99173
:10129600F9910590002011F01196FBCFFD010895FC
:1012A600BA93AA931A930A93AA81BB8112960E94B3
:1012B6002F16309729F1AA81BB8114960E942F160A
:1012C6008F01309761F00230E0E01E0780F0F801F0
:1012D60031978F01AA81BB811496ED93FC93AA8165
:1012E600BB8112960E9409133197AC81A083AA8113
:1012F600BB810E942F16FF2312F00E94091306C01D
:10130600AA81BB81EFEFFFEFED93FC931981088172
:1013160025960895BA93AA9326970E945D1610E023
:10132600AC85BD850E949214EA89FB893196EA8BC9
:10133600FB8B3197E4912E2FE03009F415C1E12F94
:10134600E03039F4253211F411E002C00E94BA14DB
:101356000AC1E130A9F4253219F40E94BA1402C177
:1013660012E040E000E02D3211F401E0FCC02B3227
:1013760011F44BE2F8C0203211F440E2F4C002C08E
:10138600E23039F450E013E0203311F40068EBC08A
:1013960003C0E33009F0E7C0203310F02A3308F029
:1013A60007C0AAE05A9F502DE22FE0535E0FDBC024
:1013B600E22FE33649F40E94C114E889F989A48131
:1013C600AA930E94C714CEC0E33741F40E94C11409
:1013D6000E94CD140E943A091E2F0AC0E03761F41C
:1013E6000E94C1140E94CD140E9446091E2F086057
:1013F60002600F7730E034C0E43611F0E93611F4BC
:10140600046002C0E53731F4E8E3F2E0EE83FF83DF
:1014160015E00CC0E83511F4086003C0E83709F0A0
:10142600A1C0E2E4F2E0EE83FF8314E002FF14C001
:101436000E94C1140E94D714AB85AA233AF4EA8508
:10144600FB850E94E615EA87FB874DE2403011F0E6
:101456001F5F01C00B7F04C00E94C1140E94D714F5
:1014660000FD11C0151778F407FF08C002FF04C07D
:101476000B7F242F115001C020E301C020E20E94FF
:10148600BA145150EFCF312F01FF17C03030A1F001
:1014960003FF06C0EE81FF812591EE83FF8305C021
:1014A600AE81BF812D91AE83BF830E94BA145030A6
:1014B60009F051503150EACF4BC020E3EE81FF8155
:1014C6000E943316E887F987EE81FF813296EE8314
:1014D600FF83E885F985AA85BB85AE17BF0750F05F
:1014E6002F5FA885B985EA85FB85EA1BFB0BEA8792
:1014F600FB87EFCF2A3328F003FF02C0295F01C024
:10150600295D04FD1AC0213320F4A885B9851197F9
:1015160009F409C0531710F000FF01C013C020E200
:1015260007FF0BC020E3006102FF07C00B7F4A9351
:101536000E94C714503009F051500E94BA1450301E
:1015460009F051503150A885B985129708F0B5CFEA
:1015560000FF08C0503031F05150E0E2EA930E949B
:10156600C714F8CF10E0E0CEAC85BD850E942F16DB
:101576000E94641664960895FF92F82E26970E949C
:101586005F160E94DF14309719F4EFEFFFEF23C0C8
:10159600DE0116960E94E2158D010E94DF14EE838D
:1015A600FF83E0E0E887E987DE011A960E94E215EC
:1015B6000E942F16FA93EA931A930A93E3E5F9E049
:1015C600FA93EA93DE011A96A5DE9F01AE81BF81EA
:1015D600E0E0EC93F9010E9466162A96FF900895C2
:1015E6000000C09A00000895C098C398C598089551
:1015F6001A93F6DF13B3C098E12F19910895AA93B1
:101606001A93E0E0E4BBC19AC298E981EF5F1E2F0E
:1016160010FF02C0C39A01C0C39811FF02C0C59A49
:1016260001C0C598E5DFE078E9F718811DC1AA93E6
:10163600A981E5DF0E94E61417C1E091AC02EA93A6
:10164600E091AB02EF73E064AE2FF1DFE091AC0204
:10165600EA93E091AD02E86BAE2FE9DF0895AA9315
:10166600E981E093AB02E295EF70E695E695E093AB
:10167600AC02E881E093AD02E0DFF6C0A091AB02D8
:10168600AF5FA093AB02A03818F0E0E0E093AB02A6
:10169600E091AB02EF7331F4E091AB02EA93A091D3
:1016A600AD02DDDF0895AA93A091AC02A8DFC29A2D
:1016B6000E94E61421960895A091AC02A0DFE0E016
:1016C600E4BBC19AC29A94DF0895AA93E981EA938A
:1016D600E9810E94EF14F0DFB0DFEEDFC5C0BA93F8
:1016E600AA931A93B89AB99ABA9ABC9AC49ABB9A08
:1016F600BD9A7ADFC498A4E6B0E00E94D815C49AD1
:1017060010E0123040F41A93AFE391DF1A93139569
:10171600A0EC8DDFF6CFE1E0E0937D02E0E0E09320
:101726007E02E981FA813097A9F0A981BA810E94E7
:101736002F16E0938102F093820212960E942F16D2
:10174600E0939602F0939702A981BA8114960E94BB
:101756002F160AC0E0E0F0E0E0938102F0938202E7
:10176600E0939602F0939702E0939802F093990221
:10177600E1E0E0938302E09384020E949D14E1E09D
:10178600E0938D02EEE8F2E0FA93EA93EFEFEA9344
:10179600A8E0B0E00E942A0904D0E1E0188123966F
:1017A60008950E945F1600E030E0E0917E02E0308E
:1017B60009F00FEF383078F4E0E0EA93A32F3F5FAB
:1017C6004EDF10E0A12F1F5FA03820F4A02F0E944B
:1017D600F514F8CFEFCFE0E0EA93A0E040DFE0E0D9
:1017E600EA93A0E0A1D30E94661624960895AA93D0
:1017F6001A930A93AC81A03818F4AB81A03418F080
:101806001981088175C3EC81EA93AC815EDF1E2FD6
:1018160014DFEB81E770A1E00E94EA150E2FEA8142
:10182600E03011F0102B03C0E02FE0951E23A12F0E
:101836003ADF198108815CC3AA93A981A03818F4FC
:10184600A881A03410F0E0E00FC0E981EA93A981F5
:101856003CDF1E2EE881E770A1E00E94EA15E12137
:1018660011F0E1E001C0E0E022960895AA931A93F0
:10187600ED81EA93AD8129DF1E2FDFDEE981E730B6
:1018860011F0E83039F4EB81EA93AA810E949312B1
:10189600EB8308C0E33021F4EB81E095EB8302C0D3
:1018A600E03021F4EA81E0951E2302C0E23029F4FB
:1018B600EA81AB81EA231E2B0EC0E13029F4EA81CE
:1018C600AB81EA231E2707C0E43029F4EA81E095BC
:1018D600AB81EA2B1E23A12F0E94F51418812696B0
:1018E6000895AA9323970E945D16A889A03848F404
:1018F600AF85A03430F4AE85A03019F0AD85A030A8
:1019060009F4C8C1EE85E887A889BB27EE85F0E013
:10191600AE0FBF1FA138E0E0BE0720F0A889E0E8BF
:10192600EA1BEE872D85AF85BB27ED85F0E0AE0F70
:10193600BF1FA134E0E0BE0720F0AF85E0E4EA1B5C
:10194600ED87A985A63009F05BC0EC85E13009F486
:10195600A1C1E33039F4E0919802F09199023097F1
:1019660009F498C10885ED85E695E695E6953E2F3E
:10197600E22FE77019F4AD852A17E9F0A02FBB27EF
:10198600E32FF0E00E940E16AA85BB850E94F9148B
:10199600269526952695532F5F935F5FE22FAF918D
:1019A600EA1748F0102FE12F1150E03019F00E948D
:1019B600FE14F9CFF1CFAE850A1711F1EE85AA858F
:1019C600BB85F0E00E94F914ED85E77009F03F5FF2
:1019D60020E02F932F5FE32FAF91AE1788F41E857B
:1019E6001F931F5FE02FAF91AE1718F40E94FE14ED
:1019F600F7CFEE85AE81BF81F0E00E94F914E9CF02
:101A0600EF85E7703E2FED85E03009F443C1EA85A6
:101A1600FB85EE83FF8310E00889303009F065C04E
:101A2600AD85A83008F45CC0E985E03011F0E330FC
:101A360009F402C0E73009F402C0E83009F402C034
:101A4600E63009F402C0E93009F402C0EA3021F4B4
:101A56000A93E8890E94EF141F931F5FEE85AF91EA
:101A6600AE17B8F5A985A63061F426DEE6DD0E943C
:101A76000B15FA93EA9320DEAE2F0E94DA12FEDDF2
:101A860027C0E985E93011F450E00EC0EA3011F4C0
:101A96005FEF0AC00E940B150E9414155E2FE985A0
:101AA600E73011F0E83021F40E941A155E2F06C0C7
:101AB600E33011F4509502C0E03021F4A52F0E94C6
:101AC600F51406C00E941E15EFEFEA93AD85CEDE33
:101AD600C3CFEF85E85FEF87ED85E850ED87D1C08E
:101AE6005D8520E0E0E0ED877AC0E32FAD85AE0F9F
:101AF600A93020F42D85E0E0ED8703C0E8E0E31B84
:101B06002E2F3A93A22F0E9488124E2FE985E63097
:101B1600F1F41F931F5FEE85AF91AE17B8F40E94E4
:101B26002415AE2FE32F0E94F2150E942B15E32FEA
:101B3600A42F0E94F215E095E1215E2B0E940B1561
:101B4600FA93EA93A52F0E94DA12E3CF2CC0E9306C
:101B560011F450E003C0EA30A9F45FEF0E941A15B1
:101B6600AE2FE32F0E94EA155E2F1F931F5FEE85AF
:101B7600AF91AE1730F40E941E154A93A0E076DEB0
:101B8600F4CF11C01F931F5FEE85AF91AE1758F4C7
:101B96000E943615AE2FE32F0E94EA15EA934A9368
:101BA600AD8564DEEFCFED85E03009F473C0AD8519
:101BB600A83028F4ED85E21B5E2FE0E003C0532F2A
:101BC600ED85E850ED8710E0EF85E85FEF87E8E008
:101BD600E31B2E2F0889EA85FB85EE83FF83E52F1D
:101BE600F0E0E65BFD4F4491E985E630F1F41F93A2
:101BF6001F5FEE85AF91AE17B8F40E942415AE2F85
:101C0600E22F0E94EA150E942B15E22FA42F0E94B4
:101C1600EA15E095E1215E2B0E940B15FA93EA93F3
:101C2600A52F0E94DA12E3CF2CC0E93011F450E060
:101C360003C0EA30A9F45FEF0E941A15AE2FE22F17
:101C46000E94F2155E2F1F931F5FEE85AF91AE17B0
:101C560030F40E941E154A93A0E008DEF4CF11C0AE
:101C66001F931F5FEE85AF91AE1758F40E9436158D
:101C7600AE2FE22F0E94F215EA934A93AD85F6DD68
:101C8600EFCFE885AA85BB85F0E0EA0FFB1FEA8760
:101C9600FB87B9CE0E946416619608950E940714C8
:101CA6000E9459161CF0E0E0F0E038C4A881B98122
:101CB600A038E0E0BE071CF0EFE7F0E02FC4E881B3
:101CC600F9812CC40E9407140E9459161CF0E0E00A
:101CD600F0E024C4A881B981A034E0E0BE071CF07E
:101CE600EFE3F0E01BC4E881F98118C4AA93E98107
:101CF600EA93E981EA93A0917D0279DD0FC4BA9354
:101D0600AA9323970E9443158F01002E012A19F4E6
:101D1600E0E0F0E05FC00E944A150F820E944A157B
:101D26000E820E944A150886EB85A885EA1718F4E4
:101D3600E0E0F0E04FC0F8010F5F1F4F5491A88517
:101D4600BB27EE27A50FBE1FEB85F0E0EA17FB07C2
:101D560018F0E0E0F0E03EC0EE81E695E695E69507
:101D66004E2FEE81E77009F04F5FEF81E030A1F072
:101D7600A985BA85EC93A885EB85EA1BF0E0DF011F
:101D8600EF81F0E00E940E16DF01E42FF0E00E94E2
:101D96000E16E00FF11F1EC09801E52FF0E00E0FA2
:101DA6001F1FA885AF5FA887A150EB85AE1760F40B
:101DB600F9012F5F3F4FA491B0E0E42FF0E00E94BD
:101DC6000E160E0F1F1FEDCFF901E491A985BA85F6
:101DD600EC93F8010E9464162C960895E0E0E093D7
:101DE6007F02A0918002BB270E944F15F0E0AE0F44
:101DF600BF1FE0918402F0E0AE0FBF1F63DFE093E8
:101E060080020895AA9321970E944315309709F4FA
:101E160057C0AF81AA3009F44FC0EF81EA93DE01C3
:101E260017966DDFAF01309719F40E94641604C34C
:101E3600E0918302AE81EA0F3E2FA0917F02BB277D
:101E46000E9456150138E0E01E0718F0032F1127EF
:101E5600C5DFE0917F02EA93E0918002EA93E8858C
:101E6600EA930E944F15EA93E1E0EA935A934A9364
:101E7600A7E037DDE0917F02AE81EA0FEA93E091B9
:101E86008002EA93E0918302EA930E944F150E9432
:101E96005B15E0917F02EA93A09180020E944F15A4
:101EA600EA0FEA933A93E09184020E945B15E0E818
:101EB600F0E0E017F10721F491DF0E946416BCC23E
:101EC60000937F020E946416B7C2BA93AA931A932C
:101ED600EC81EA93AC8128D0A981BA81ED91A983DE
:101EE600BA831E2FE03019F0A12F8CDFF5CF1881B1
:101EF60025960895AA93EA81EA93EA81EA93E09106
:101F06008602AA81EA2319F0E0917D0202C0E091DF
:101F16007E02AE2F6CDCE881EE0FE883E03011F430
:101F2600E1E0E883E88141C3AA93A981BB27B6DE35
:101F3600E0937F02A881BB27C5DEE0938002EEC254
:101F4600AA932B970E945D16AC89BB27A7DEEC8B64
:101F5600AA89BB27A3DEEA8BAB89BB27B3DEEB8B53
:101F6600A989BB27AFDEE98BEA89E0937F02E9897D
:101F7600E0938002E1E0E887E989AB89EA1771F529
:101F86001C89AA891A1731F41A93EC89EA93A1E0FD
:101F9600B1DFC8C0AA891A1730F4EA89E11B0E2FEF
:101FA60041E050E006C0AA89E12FEA1B0E2F4FEF51
:101FB6005FEF3B89E0E0EE830E94651538F41A93E3
:101FC6003A933395AA8596DFEF83F6CFEF81E887BC
:101FD600140FE02F0150E03061F7A4C0EA89AC8904
:101FE600EA1739F53B89A9893A1730F4E989E31BE1
:101FF6002E2FE1E0F0E006C0A989E32FEA1B2E2F81
:10200600EFEFFFEFED87FE871C89E0E0EE830E948D
:10201600651530F41A9313950E946D15EF83F7CF6B
:10202600EF81E887ED853E0FE22F2150E03061F722
:1020360079C0E0E0EE830E94651508F073C01C8944
:102046003B89E1E02E2F0E2FAA89BB27EC89F0E011
:10205600AE1BBF0BAD0155232AF40FEFFA010E9408
:10206600E615AF01FA01EE0FFF1FEF87F88BA9897E
:10207600BB27EB89F0E0AE1BBF0BAD87BE87AE85F5
:10208600AA233AF42FEFED85FE850E94E615ED872B
:10209600FE87ED85FE85EE0FFF1FEB87FC871A9303
:1020A6003A93A1E027DFE887E0E0E987EA87AD8594
:1020B600BE854A175B07BCF0100FEB85FC850E94B6
:1020C6007115A985BA854A175B072CF4320FAF85BF
:1020D600B8890E9478151A930E946D15E887EA89D7
:1020E600E11751F718C0320FEF85F8890E94711574
:1020F600ED85FE85A985BA85EA17FB072CF4100F36
:10210600AB85BC850E9478151A930E946D15E887E9
:10211600E989E31741F7EB89EF5FEB8BE989EF5F1D
:10212600E98B89CF0E94641665960895BA93AA939F
:1021360023970E945D16ED85E887E0918502EF837F
:10214600E0917D02EE83AA89BB27EF850E94561592
:10215600A989BB27E8890E947F15E8890E94861510
:1021660071F0E885E078F1F4AD85BE85EAE5F0E04A
:102176000E948E151CF00E9497150CF413C0332391
:1021860012F00E949C15AF81A23020F02230E0E0D0
:102196003E070CF407C00E94A01521F40A93A22F53
:1021A600A150A4DDE885E878E83891F0E885E07884
:1021B600C9F4AD85BE85A25FBE4F0E94A9153CF04D
:1021C600AD85BE85A25FBE4F0E94AE150CF40AC057
:1021D6000E94B31538F00E94BA1521F40A93A42F71
:1021E600AF5F84DDAA89BB27EF85F0E0AE1BBF0B8E
:1021F6008D0111230AF445C0E885E278E23891F0B2
:10220600E885E07811F5AD85BE85A65ABF4F0E94D8
:10221600A9153CF0AD85BE85A65ABF4F0E94AE15E6
:102226000CF413C0332312F00E949C15AF81A23028
:1022360020F02230E0E03E070CF407C00E94A01513
:1022460021F40A93A22FA15051DDE885E478E43801
:1022560071F0E885E078A9F4AD85BE85EEE0F1E0A1
:102266000E948E151CF00E9497150CF40AC00E945D
:10227600B31538F00E94BA1521F40A93A42FAF5F64
:1022860035DDAA89BB27E8890E945615A989BB278F
:10229600EF850E947F15EF850E94861581F0E885FF
:1022A600E078F1F4EB85FC85AD85BE85AE17BF07FA
:1022B6002CF0E985FA85EA17FB070CF411C03323E5
:1022C6007AF00E949C15AF81A23050F0E02FEE5FAD
:1022D6000E94C31529F4E02FEF5FEA93A22F06DDD3
:1022E600E885E878E83871F0E885E078C1F4AD85EE
:1022F600BE85E8E6F1E00E948E151CF00E94971557
:102306000CF40DC00E94B31550F0E02FEE5F0E9452
:10231600CB1529F4E02FEF5FEA93A42FE7DCAA8917
:10232600BB27E889F0E0AE1BBF0B8D0111230AF431
:1023360050C0E885E278E23871F0E885E07809F582
:10234600AD85BE85E4EBF0E00E948E151CF00E9480
:1023560097150CF416C03323A2F00E949C15AF818A
:10236600A23020F00230E0E01E070CF40AC0E02F95
:10237600E2500E94C31529F4E02FE150EA93A22F00
:10238600B5DCE885E478E43891F0E885E07809F58D
:10239600AD85BE85AC54BF4F0E94A9153CF0AD85F6
:1023A600BE85AC54BF4F0E94AE150CF412C00E94FD
:1023B600B31520F00230E0E01E070CF40AC0E02F4F
:1023C600E2500E94CB1529F4E02FE150EA93A42FA6
:1023D6008DDC0E94641663960895AA930E945F1688
:1023E600AF81BB27ED81F0E0AE1BBF0B57DC1E2F84
:1023F600AF81BB27ED81F0E0AE0FBF1F4FDC0E2F84
:10240600AE81BB27EC81F0E0AE1BBF0B5BDC3E2F41
:10241600AE81BB27EC81F0E0AE0FBF1F53DC2E2F41
:102426001A933A930A93A32F8BDD1A932A930A934E
:10243600A22F86DD0E94661628960895AA930E940A
:102446005D16A985A03818F4A885A03408F04FC0F9
:1024560050918502E52F5150E03009F448C0EF81D4
:10246600E03009F444C0EF81E150EF83EF5F0E2FB7
:10247600F0E0A5E0B0E0AE1BBF0BFD010E94FA152F
:102486000E94FF159F0110E0AE81A03459F40E940E
:10249600D3151A93A02FA1DF0E94D3150A93A12F5B
:1024A6009CDF0FC00E94D3151A930A93EA85F0E0C9
:1024B600FA93EA93E0E0F0E0FA93EA93A0E0B0E062
:1024C60035DE1F5F33231AF4E12FF0E008C0015018
:1024D600A12FBB27E02FF0E0AE1BBF0BFD01EE0FD7
:1024E600FF1F31962E0F3F1F011770F6B3CF0E94C4
:1024F60064162A960895AA93EA81EA93EA81EA93F2
:10250600EA81EA93AFE89ADF50C0AA93E881F0E047
:10251600E65BFD4FA491E9810E94EA152296089593
:10252600AA931A93E981E73011F0EA3019F4109171
:102536007D0209C0E93019F410917E0204C0E8302A
:10254600A1F410918D02E0917E02E03049F0103046
:1025560019F0EFEF188129C0EA81E095188125C0AE
:10256600103019F4E0E0188120C0EA8118811DC0FE
:10257600BA93AA93EA81E13021F4E881F981E491E2
:1025860014C0E23029F4A881B9810E943C160DC01E
:10259600E33041F4A881B981E0919602F091970267
:1025A600099503C0A881B981EC9123960895AA9351
:1025B600EB81E03029F4E881A981BA81EC9314C05B
:1025C600E23031F4E881A981BA810E9448160CC034
:1025D600E33051F4E981FA81FA93EA93AA81E09112
:1025E6009802F09199020995249608950E9404167E
:1025F6000E94371684E00E94BF0A2896EFE0EA930D
:102606000895E1E0EA93E2E3EA930895ED91FD91FE
:102616003196FE93EE930895E881A0919A02B0E078
:10262600F0E0E7FDFFEFEA17FB070895A0919B0294
:10263600E881B0E0F0E0E7FDFFEFEA17FB07089559
:10264600AB81BC81E0E0F0E00895ED93FC93A981B5
:10265600BA810895A0919C02E881B0E0F0E0E7FD20
:10266600FFEFEA17FB070895A0919D02E881B0E00D
:10267600F0E0E7FDFFEFEA17FB070895A0919E0241
:10268600E881B0E0F0E0E7FDFFEFEA17FB07089509
:10269600AB81BC81E1E0F0E0D8CFA0919F02E88158
:1026A600B0E0F0E0E7FDFFEFEA17FB070895A09121
:1026B600A002E881B0E0F0E0E7FDFFEFEA17FB07D4
:1026C6000895A091A102E881B0E0F0E0E7FDFFEFF8
:1026D600EA17FB070895AB81BC81E2E0F0E00895BC
:1026E600A091A202E881B0E0F0E0E7FDFFEFEA1773
:1026F600FB070895E8810E940916A0919A02B0E0AE
:10270600F0E0E7FDFFEFEA17FB070895B0E0F0E021
:10271600E7FDFFEFEA17FB070895A0919B02E8810A
:102726000E940916F3CFA0919C02E8810E94091627
:10273600EDCFA0919D02E8810E940916E7CFA091F6
:102746009E02E8810E940916E1CFA0919F02E881CE
:102756000E940916DBCFA091A002E8810E9409160B
:10276600D5CFA091A102E8810E940916CFCFA091F2
:10277600A202E8810E940916C9CFE0E0F0E0ED93DD
:10278600FC93E1E00895E2E0F0E0ED93FC93089518
:10279600E1E0F0E0ED93FC930895A3E0A09FF00143
:1027A600A19FF00DE656FD4FE20FF31F0895AF818E
:1027B600B885AC91E8810E940916A8CFE8810E94ED
:1027C6000916A4CFAD81BE81E3CFAB81BC81E0CF3A
:1027D600AD81BE81E0E0F0E0ED93FC930895ED81DC
:1027E600FE81FA93EA930895AC810E945C02E03080
:1027F6000895AC810E94DF03E0300895AD81BE816B
:102806000E948705E0300895BA93AA93A881B981FA
:102816000895AC91BB27E881F9810895E181F0E044
:10282600AE0FBF1FE881F981E281F0E0AE0FBF1F56
:102836000895E881F981E381F0E0DF01E881F9811B
:10284600E481F0E0AE0FBF1FE881F981E581F0E099
:10285600AE0FBF1F0895E881F981E681F0E0089583
:10286600DF01E881F981E781F0E0AE0FBF1FE88163
:10287600F981E085F0E0AE0FBF1F0895A881B98108
:10288600C8CFE381F0E0AE0FBF1FE5CFE881F98145
:10289600E181F0E0DF01E881F981E481F0E0AE0F4B
:1028A600BF1FE881F981E781F0E0AE0FBF1F0895F1
:1028B600E881F981E281F0E0DF01E881F981E581D3
:1028C600F0E0AE0FBF1FE881F981E085F0E0AE0FC2
:1028D600BF1F0895E481F0E0AE0FBF1FE881F981C4
:1028E6000895E085F0E0AE0FBF1F0895E881F981F5
:1028F600F1CFAA93AB81BC81E3E00E941616E6569F
:10290600FD4FA981BA81AE0FBF1F0895AA81BB8171
:10291600E0E0F0E0ED93FC93A881B9810895E0E052
:10292600F0E0ED93FC930895AA81BB8131CFAA8193
:10293600BB8129CFE0938502EFEFE09386020895ED
:10294600E981FA81A5E1B0E00E941C160895E983A9
:10295600FA83EB81FC81A5E1B0E00E941C16089584
:10296600EB83FC83E981EA93EC81EA9308952A9349
:10297600AD85BE85EF85F88909950895E889F989B9
:102986003497E88BF98B0895AD85BE85EF85F88978
:1029960009950895A889B98914960E942F16EE8381
:1029A600FF83AE81BF810895A889B98914960E94D4
:1029B6002F16EA87FB870895DE011C960E94E21512
:1029C6000E942F160895C198EFEFE4BBE881E5BB9E
:1029D6000E94F30A0C94F70AE695E695E695AE2F63
:1029E6000C94320B0E94560B0C94410BEA0FFB1F02
:1029F600EE83FF830895EC85EA93EF81F88531969F
:102A0600EF83F8873197FA93EA93A0E00C94DA12F1
:102A1600EC85EA93EF81F8853196EF83F887319755
:102A2600089566277727DF01CB010C94BB125A93D2
:102A3600AA850C9493120A930395E889EA935A930C
:102A460008950A930395A8890E94680BE4230895C4
:102A56005E2FEC85EA93AF81B885882799270E9477
:102A6600BB121E2E08950A930395E889EA93EE8514
:102A7600EA93E985FA853196E987FA873197D1CFC6
:102A86000E945D16E0918102F09182020895F8019C
:102A96000F5F1F4F04900895E0918102F09182022A
:102AA6003196E4910895F0E0EA0FFB1F8F01089537
:102AB600EA93E0E0EA93E0E0F0E0FA93EA93A9E033
:102AC6000C94740CAE81AF5FAE83A150E091850289
:102AD600AE1708953A93AA850C947D0FA985BA85F9
:102AE600EA0FFB1FE987FA870895E985FA85EA1B4D
:102AF600FB0BE987FA870895F0E0AE1BBF0B9D013B
:102B0600A989BB270895F0E0EA0FFB1FAF01E8850E
:102B1600E178E1380895EA1BFB0B0F01DF01EB8535
:102B2600FC85AE17BF070895E985FA85E015F1051E
:102B360008950A93A22F0C94790E0A93A22FA250FD
:102B46000E941F0CAE2FEE81EA170895EB85FC85D7
:102B5600AE17BF070895E985FA85EA17FB070895BA
:102B66000A93A42F0E94790EAF81A23008950A938A
:102B7600A42FAE5F0E941F0CAE2FEE81EA170895B8
:102B8600EA93A22F0E941F0CAE2FEE81EA1708953A
:102B9600EA93A42F0E941F0CAE2FEE81EA17089528
:102BA600E985EA93E985EA930895109639F080ED70
:102BB60097E00197F1F7A8951197C9F708950024B2
:102BC600AF0DB01D0895F195E195F0400895EE23FF
:102BD6000E2EEA2F19F0EE0F0A94E9F70895EE2368
:102BE6000E2EEA2F19F0E6950A94E9F70895EE0FEE
:102BF600FF1FEE0FFF1F0895F595E795F595E795ED
:102C060008956F2F660F660B762F0895EE23E1E089
:102C160009F0EE270895FA9FF02DEB9FF00DEA9F3D
:102C2600E02DF10D08956E2F6A9FF0016B9FF00D58
:102C3600089504D0F0DF0EF4C6DF0895E894F7FF98
:102C460002C0C1DF6894B7FF06C0A095B095119683
:102C560000F8039400FA0895ED91FC9111970895F8
:102C66000590F491E02D08957A936A93FA93EA9386
:102C76000895E199FECFFF93FFB7F894AEBBBFBBB3
:102C8600E09AEDB3FFBFFF910895E19B02C0A895BE
:102C9600FCCF9FB7F894AEBBBFBBE09A8DB3E817E5
:102CA60019F0EDBBE29AE19A9FBF089500240A1637
:102CB6000B0608955A934A933A932A931A930A93C2
:102CC60008955D814C813B812A811981088108958F
:00000001FF
